:020000040800F2
:10400000906B0020D94100086D3101085927010843
:1040100000000000000000000000000000000000A0
:1040200000000000000000000000000081520108B4
:104030000000000000000000A9340108AD5C010888
:10404000EB410008EB410008EB410008EB410008A0
:10405000EB410008EB410008EB410008EB41000890
:10406000EB4100085D850008EB410008EB410008CA
:10407000EB410008EB410008EB410008EB41000870
:10408000EB410008EB410008EB410008EB41000860
:10409000EB410008EB410008EB410008EB41000850
:1040A000EB410008EB410008EB410008EB41000840
:1040B000D162010821630108EB41000800F002F819
:1040C00000F05FF80CA030C8083824182D18671EBF
:1040D000A246AB4654465D46AC4201D100F051F8D1
:1040E0007E460F3EB6460FCC0126334200D0FB1A67
:1040F0003343A246AB4618470C5801002C58010028
:104100000023002400250026103A01D378C1FBD8F3
:10411000520700D330C100D50B60704710B5662937
:1041200002D113F0B5FB10BD642902D100F08CF967
:1041300010BD752902D100F087F910BD782902D190
:1041400000F0B8F910BD632902D101F0C7FF10BD1E
:10415000732902D101F0CAFF10BD002010BD1FB5A8
:1041600002F0AEF804000020002113F079FA401CA0
:1041700060600020002113F089FAE0601FBD10B5D7
:1041800010BD02F01DFF1146FFF7E9FF12F046FFD8
:1041900003F0D4F903B4FFF7F2FF03BC03F09CFA79
:1041A00070B505460C46164602E00FCC0FC5103E12
:1041B000102EFAD2082E02D303CC03C5083E042EDB
:1041C00007D301CC01C5361F03E021782970641C98
:1041D0006D1C761EF9D270BD07488047074800471E
:1041E000FEE7FEE7FEE7FEE7FEE7FEE704480549D7
:1041F000054A064B70470000295D0108BD400008D4
:1042000090650020906B0020906700209067002050
:10421000FEB5044610460D46184373D0A6468C469C
:104220000020A41A01469D4167D366460027012459
:104230003D46B61A9D4102D313463A4621246546AF
:1042400076462F04360C3E432D0CB61A9D4104D3FE
:10425000150C1B042B4312041034654676462F06BA
:10426000360A3E432D0AB61A9D4104D3150E1B0291
:104270002B4312020834654676462F0736093E4323
:104280002D09B61A9D4104D3150F1B012B431201B2
:10429000241D65467646AF07B6083E43AD08B61AFC
:1042A0009D4104D3950F9B002B439200A41C6546AF
:1042B0007646EF0776083E436D08B61A9D411AD33D
:1042C00092185B41641C16E0001876466546494129
:1042D000B71A9D410191009009D36046B11A9841E7
:1042E0008E468446009801990025401C6941DD07EF
:1042F00052082A435B08641EE6D57246634603B043
:10430000F0BDFFE72046284307D00020C043014608
:10431000C046C04622462B46F1E700200146F7E79B
:1043200010B5044601F030FC0068005DC00602D5FF
:104330002046203010BD204610BD00000FB41CB533
:10434000084B06AA7B4469460090059801F09BFE45
:1043500004460020694601F0A9FE20461CBC08BCAA
:1043600004B01847651D00000FB41CB50C0007AA67
:10437000009007D04142A14202D30019401E01E043
:104380000020C043074B7B4469460190069801F02A
:104390007AFE0021002C01D0009A11701CBC08BCD0
:1043A00004B018472D1D000070B5044685690068EB
:1043B000C10601D5302600E02026C00707D070BD19
:1043C00062683046A1689047206A401C20626D1EDA
:1043D000F6D570BD70B5044685690078C00707D171
:1043E00070BD6268A16820209047206A401C20624E
:1043F0006D1EF6D570BD70B50C460546012A05D078
:104400002878800600D5EA69002302E0012305E050
:104410005B1C934202D2E05C0028F9D1A869E6183F
:10442000C01AA861286AC01828622846FFF7BCFF96
:1044300004E06A682078A968641C9047B442F8D305
:104440002846FFF7C7FF70BDF7B50025752910682E
:10445000009914A611D0C046C046002802DA404296
:1044600011A608E0009909688A0701D50FA602E0A5
:10447000490704D50EA6012501E0C046C046009FAD
:104480000024243704E001F003FF30313955641C67
:104490000028F8D12B4632462146009801F08BFBCC
:1044A000FEBD0000000000002D0000002B000000F9
:1044B0002000000070B504460D4621461068C04635
:1044C000C0462188090502D50F4A7A4402E00E4A07
:1044D0007A440E3223460021243305E00607000902
:1044E000360F965D5E54491C0028F7D120780023D2
:1044F000000705D5702D03D0002901D00223113209
:10450000204601F058FB70BD02340100F3B50446AB
:10451000002081B020622046E168884700287DD0D5
:10452000252802D06268A16883E0454F00257F44BA
:104530002046E16888472028064608DB312E06D24F
:10454000B81920380078002801D00543F0E7A80703
:1045500001D5042085430020E0610746A0612A2E92
:104560000AD0304612F0EBFF002827D0B80000191F
:10457000303E0090866119E00298BA00121902C814
:10458000916102902046E1688847012F064617D1C5
:10459000E06900281FDA202085431CE000980A21EA
:1045A0008069484300998019303888612046E16865
:1045B0008847064612F0C3FF0028EFD1012F0AD02A
:1045C0002E2E08D12046E168884706462020054364
:1045D0007F1C022FC3DBA069002803DA4042A061E0
:1045E00001200543E80701D010208543002E24D088
:1045F00030464138192803D80120C002054320362F
:10460000204625603146029A1546FFF787FD0028AF
:104610000CD0012807D0ED1DE80800E00DE0C00037
:104620000830029077E72D1D029574E762683046E6
:10463000A1689047206A401C6CE7206AFEBD00001C
:10464000C63301000FB400B58DB010A909900B90CE
:104650000020C04300910A9000200C900748784445
:104660000690074878446A4607900F9909A801F018
:1046700047FD0DB008BC04B018470000C31A000085
:10468000DD1A0000FFB5144683B00020002600901C
:104690005068019091699768049888470C9905467D
:1046A0000698084305D009E0A1690498761C88475C
:1046B0000546216A284688470028F5D1681C03D0A2
:1046C0000198C00704D017E00020C04307B0F0BD38
:1046D0002068011D2160006800900DE00198C0076E
:1046E00004D1009805700098401C0090A169761CC8
:1046F00004987F1E88470546002F1CDD681C1AD0D1
:10470000069800280FD0E817C00E40194111400943
:104710008A000699400151182A1A09680120904020
:104720000142DBD107E00C980028D7D12846216A46
:1047300088470028D2D0E169049888470C9800285F
:1047400007D1002E05DD0198C00702D10098002195
:104750000170A068B84204DD0C98002804D0002F36
:1047600002D00120C043B1E73046AFE770B506463E
:1047700001F012FA0468054630460A22002101F0D1
:104780004FFD2C6070BD401ECAB24178401C8A4269
:1047900002D00029F9D10020704730B505460B46FC
:1047A0002A461C781078521C5B1C002801D0A042BD
:1047B000F7D0002C03D0002802D06D1CEFE728466C
:1047C00030BD034610B50B439B070FD1042A0DD310
:1047D00008C810C9121FA342F8D018BA21BA8842DB
:1047E00001D9012010BD0020C04310BD002A03D014
:1047F000D30703D0521C07E0002010BD03780C78CB
:10480000401C491C1B1B07D103780C78401C491C19
:104810001B1B01D1921EF1D1184610BD034670B585
:1048200002460B439B070FD10E4CE60100E008C285
:1048300008C91D1B9D433542F9D0D9B21170521CD5
:1048400000290DD01B0AF8E70B78491C1370521C85
:10485000002B05D00B78491C1370521C002BF3D190
:1048600070BD00000101010130B5441C03E0017876
:10487000401C00290DD08107F9D10B4BDD0104C884
:10488000D11A91432940FAD0001B0A0603D0C01E5A
:1048900030BD001B30BD0A0401D0801E30BD0902AE
:1048A000FCD0401E30BD0000010101010346F0B5FF
:1048B0000B439B072DD1244DEF01042A29D308C8AF
:1048C00010C95E1B9E43121F3E4017D0D8B2E1B202
:1048D000401A3106014310D198B2A1B2401A3104F6
:1048E00001430AD118022102000A090A401A3102C2
:1048F000014302D1180E210E401AF0BDA342DCD0B4
:1049000018BA21BA884201D90120F0BD0020C04365
:10491000F0BD002A01D10020F0BD03780C78401CC6
:10492000491C002B0DD0A3420BD1521E09D0037895
:104930000C78401C491C002B03D0A34201D1521E0D
:10494000EBD1181BF0BD000001010101F8B5042AEC
:104950002CD3830712D00B78491C0370401C521EC5
:1049600083070BD00B78491C0370401C521E830731
:1049700004D00B78491C0370401C521E8B079B0F00
:1049800005D0C91ADF002023DE1B08C90AE0FFF7A3
:1049900007FCF8BD1D4608C9FD401C46B4402C4329
:1049A00010C0121F042AF5D2F308C91A521EF0D4FF
:1049B0000B78491C0370401C521EEAD40B78491C2A
:1049C0000370401C012AE4D409780170F8BD01E0AD
:1049D00004C0091F0429FBD28B0701D50280801C6B
:1049E000C90700D00270704700290BD0C30702D05E
:1049F0000270401C491E022904D3830702D502809D
:104A0000801C891EE3E70022EEE70022DFE70000BA
:104A1000F8B507460B4639461943890713D1164C9A
:104A2000E601042A0FD302CB0D1B8D43354202D180
:104A300002C0121FF5E7CBB20370401C521E002BC0
:104A400013D0090AF7E7002A14D01978521E5B1C0C
:104A50000170401C002908D0002A0BD01978521E82
:104A60005B1C0170401C0029EDD1002A02D01146C8
:104A7000FFF7C9FF3846F8BD0101010170B50546D1
:104A8000144600680B1489B2021480B2D21846187A
:104A90002146104600F0D0F809048A19064621463E
:104AA000104600F0C9F801E00919401E0029FBDB9F
:104AB00029603104081870BDF0B5044687B000685D
:104AC0005449029060680390A0680490E0680190E7
:104AD00020690090656901208007281888427FD2EC
:104AE0003C22002102A8FFF7C9FF3C22014603A88F
:104AF000FFF7C4FF1822014604A8FFF7BFFF411EBD
:104B0000454A01A8FFF7BAFF0C2206466846002175
:104B1000FFF7B4FF414BB1004018401900267B4419
:104B20000FE0511A6D1C022D0095019102D00C2D41
:104B300007D104E0820704D0491C019101E0401C28
:104B40000096009D019A595D9142EADD012D06D142
:104B50001C2A04D1810702D002210196009101464E
:104B600046398B293CD2019D00990022AE4602E0D5
:104B70009E5C7519521C8A42FADB012902DD82070C
:104B800000D06D1EC217244B920F1218FF269210F0
:104B90006E365A4383079B0F7343D218521983070B
:104BA00000D1521E182316463C275E43049BF6187C
:104BB00006933C235E43039B0593F318184E9B1901
:104BC0001E149BB27E437B43029FDB19BC461F0C25
:104BD000BF199BB23E041E433B0C00E000E003D033
:104BE0000020C04307B0F0BD63462360059B6360AF
:104BF000069BA36073465B1CE36021616061072133
:104C0000501C00F019F80020E561C043A16120624A
:104C10003046E7E701000080B5050000A72E01003F
:104C2000A039CEFD002203098B422CD3030A8B420C
:104C300011D300239C464EE003460B433CD4002294
:104C400043088B4231D303098B421CD3030A8B42A6
:104C500001D394463FE0C3098B4201D3CB01C01A74
:104C6000524183098B4201D38B01C01A524143093F
:104C70008B4201D34B01C01A524103098B4201D32D
:104C80000B01C01A5241C3088B4201D3CB00C01A9A
:104C9000524183088B4201D38B00C01A5241430812
:104CA0008B4201D34B00C01A5241411A00D2014637
:104CB0005241104670475DE0CA0F00D049420310D0
:104CC00000D3404253409C46002203098B422DD31F
:104CD000030A8B4212D38901FC2212BA030A8B42C7
:104CE0000CD3890192118B4208D3890192118B4216
:104CF00004D389013AD0921100E08909C3098B429B
:104D000001D3CB01C01A524183098B4201D38B01DD
:104D1000C01A524143098B4201D34B01C01A524180
:104D200003098B4201D30B01C01A5241C3088B42C5
:104D300001D3CB00C01A524183088B4201D38B00B0
:104D4000C01A5241D9D243088B4201D34B00C01A3A
:104D50005241411A00D201465241104663465B104F
:104D600001D34042002B00D54942704763465B1097
:104D700000D3404201B50549002802DC491C084027
:104D800000E00846C046C04602BD00BFFFFFFF7FEF
:104D900070477047704700000246C80FC007814344
:104DA0004B0030B54B405B009B0D20D01923DB0638
:104DB000C91801231B05994220DB0324A4070425FD
:104DC0001346AB400BD3002B04D1EB0613409B00E2
:104DD000E34204D401246407002312195941FF233C
:104DE0001B0599420BD2C9000143500F09E0CB02C9
:104DF00004D501430803024305D0054830BDFF2117
:104E0000C905084330BD084607210905884330BD60
:104E10000000C07FF0B50C46871A9C410D46861AEB
:104E20009D4103D2C01BA141D21963410D0D1F0D3D
:104E3000C94EEC1BAE435CD07F057F0D0026002FD2
:104E400051D02D05AC46A943DD020123ED0A1B0517
:104E50001D4320231B1B24D41746E74038187141FB
:104E60002F46E740CC199D402818314661410C0D72
:104E700027D161449A4013D50023401C5941520068
:104E80000ED14008400001224B005205D34207D307
:104E900005204007C14201D5B04900E0B049304685
:104EA000F0BD6B00002A00D001229A181F23203C7D
:104EB0001B1B01D5002302E0E540281871410C0DB1
:104EC000D7D0012424050919C407CD074008490893
:104ED000E40F28436144002CD5D00024401C6141DC
:104EE0009A40D0D1CDE76A05520DD9D1C90FC90773
:104EF000D5E79C4D4E00002801D0012400E000249D
:104F000034195F00002A01D0012600E00026BE19F6
:104F1000954FAC420CD8AE420AD8B44206D0012517
:104F20006D05EC42BCD010461946F0BD9942FCD04C
:104F300000203946F0BDF0B51FB40C460F46811A6B
:104F40009F412546861A9D4106D20125ED076F40F7
:104F5000401ABC4152187B41210D1E0D8D1BAC46E1
:104F60007D4D8D437ED075056D0D7CD00D05AE4613
:104F7000AC431B031B0B794D52429D4120236646D7
:104F80009B1B14D31746F740381800260090744135
:104F900060462F460741E41900989D402818664155
:104FA00016D4714671189A4025D5012320E0931834
:104FB0002A466A415200002B00D0521C1E23203E7C
:104FC0009B1B002B61DD3541EE1728186641E8D5A3
:104FD000001876415B1C9A4000D3401C4B05F31827
:104FE0001524E34010D3002B52D071467118D30F13
:104FF000C01802D3491C05B0F0BD0123DB079A425B
:10500000F9D140084000F6E701225205B21801D15B
:10501000002853D00123CC0ADB029943891E002AC1
:1050200008D1020C03D0020C0004103902E0024641
:10503000002020390023550B05D112020823550BFF
:1050400001D152010D23550C01D112011B1DD50CAC
:1050500001D192009B1C150D01D152005B1C202533
:10506000EE1A01E02CE022E00546F5401543984099
:10507000CA1AE10769181305C918002ABBDA032008
:1050800040070818C10FC9070FE071466118B2E761
:10509000F10740080843711071444A000CD0012305
:1050A0005B059A42A7D2C90FC9070020A3E74905AB
:1050B000490D26D1002001E00028F4D100219AE713
:1050C000284D6600002801D0012100E00021711860
:1050D0005F00002A01D0012600E00026BE19224F01
:1050E000A94210D8AE420ED8B14208D001256D05B4
:1050F000E94206D01946A802414010467BE79C428F
:1051000001D0214677E70020394674E710B50C46F8
:105110005C4005D50124E4076340FFF70CFF10BD98
:10512000FFF778FE10BD30B40C465C4004D5012476
:10513000E407634030BC6DE630BCFCE670B501248A
:10514000E40761400D465D4002D4FFF763FE70BD89
:105150006340FFF7F0FE70BDFF0700000000F0FFA6
:105160000000F07F0000E0FF0000F87FF0B5F94D8F
:105170000C091E092C402E402F468BB0A7437DD032
:10518000B543FCD0002E7AD0002CFCD00D465D40FB
:10519000ED0F2543AC1BFF25AD0464190894C5022F
:1051A000440DC9022143500DDC0204430120C00715
:1051B00001430443D2020191200C110C00958C464E
:1051C000010423468B430A9161460904E24D8A4358
:1051D0000991010A7D4449198039097805464D43F2
:1051E00001266D18F605751B6943C90C640B891CF3
:1051F0004C436418B5012C1B250C2E04B4434C43BE
:105200004D43210C691889090591009DE90701D0DA
:105210000121C90704912C4601996708CD072F4346
:105220004C08059DE10B4D432D0C29466646754300
:1052300002950D4645432E46029D7D1BB4410095C7
:105240000D465D4301942C0C2F040D465543AE468C
:105250002D0C3D43029503947546049C2D04641B5C
:10526000049406D2029C039D641C0026754103959C
:10527000029401AC70CC009F7D1B01E03EE162E135
:10528000B44109040095079101940599A40861436C
:10529000090C0C464443650BE7040C466646744310
:1052A000A646640B3C43039502947446049DE404B3
:1052B0002C1B049406D2029C039D641C002675419D
:1052C0000395029401AC70CC009F7D1BB441019406
:1052D0000C465C430095650FE7000C465443A64618
:1052E000640F3C43039502947446049DE4002C1B18
:1052F000049406D2029C039D641C0026754103950C
:10530000029401AC70CC009F7D1BB441AE09AF0686
:10531000049DC900AD092F43049DA406AD06049564
:10532000079D344369180791059DE10B4D432D0CF2
:1053300029466646754302950D4645432E46029D15
:105340007D1BB44100950D465D4301942C0C2F0448
:105350000D465543AE462D0C3D43029503947546CC
:10536000049C2D04641B049406D2029C039D641CBF
:10537000002675410395029401AC70CC009F7D1B03
:10538000B44101948C050694079C890A6118009524
:105390000791019C0599A4086143090C0D464543FA
:1053A000680BEF040D46644665436C0B3C43049F59
:1053B000ED047D1BAC4602D20025641C6841009EB2
:1053C000019D371B85410846584301950C46460F01
:1053D000C5005443600F28436546E4002C1B02D2ED
:1053E0000025401C6E41019D3F1AB5412846BD096C
:1053F000800628438446A009BF064E020699A406EB
:1054000076180743079D002068410A9907901943C1
:105410000020099B00906046FF1913434041E20FB2
:1054200064003A43A4460446D71A8C41A04203D9EB
:105430000120009020463A46C70F9418404162462A
:10544000D20F2243644664000494009CBE4664006C
:10545000D71AA446044602978C417746002F01D103
:10546000A04204D96046401C8446029A2046C40FDC
:10547000A64694184041049A0546D20F224364463A
:105480006400D31A8D417146002901D1A84202D986
:1054900028461A46641C10430122002800D01643F7
:1054A00061020020079B891904465C410223002CFD
:1054B00002DB491813466441089DCE0A2D145D197C
:1054C0004B056705E10A2C050D1908993E43C907EC
:1054D0006940002B08D0934006D30022761C51412E
:1054E000002B01D1760876001C4A002D43DB1542C3
:1054F00041D0AA433FD030460BB0F0BD06180D4650
:105500004D41174C7642AC411AD395181C465C416C
:10551000134A6D42A24113D3012252054C00D442DA
:105520000AD15C00D4420BD04B4002D59202114309
:10553000E2E749004908DFE75940C90FC90718E009
:1055400000200849D8E7054801420DD10342F7D0B1
:10555000F2E700000000FF07312701000000F07FA4
:105560000000E0FF0000F87F114859400143C012DD
:1055700041400020C0E70123089A9B069A4205DCBF
:10558000032252078918C90FC907B5E70522520738
:105590008918074A1143D2125140ADE770B515463C
:1055A0001C4602460B4628462146FFF7DFFD70BD2C
:1055B000FFFFFF7F30B50346CA02400D1043164D72
:1055C000164C0A1502D02043002A06DBAA1A002A2C
:1055D00012DDD040FF2A0BDC30BD5205520D01D147
:1055E00040004008AA1A07D4D0404042FF2A01DDFB
:1055F000002030BD0028FCDD4A00002B01D0012036
:1056000000E00020101801225205D042F0D8C8173F
:10561000C043604030BD00001E0400000000008058
:10562000F0B5430DCA021A430446C30208152025EB
:10563000274E002803D0AF063A43002813DB361A62
:10564000002E2FDD502E00D350261146F140344657
:10565000203C02D41046E04002E0AC1B1046A040C3
:10566000F3401843F0BD4005400D01D152005208EF
:10567000301A17D4502800D350201646C64007468B
:10568000203F01D4FA4001E02D1AAA40C3401A433A
:10569000504200230025B3412A462D1A9A4101DBCE
:1056A0001946F0BD4A00002C01D0012000E0002086
:1056B000101801225205D04202D900200146F0BD47
:1056C000C917C8430122C943D2075140F0BD0000A9
:1056D0003E0400001F22030C02D10F22000402D05E
:1056E000030E03D004E00020014670470002083A90
:1056F000030F01D10001121F830F01D18000921E00
:10570000002801DB4000521E120551184205C0124C
:10571000411810467047C10FC90700D0404201220E
:1057200092071143D6E701218907D3E7F0B58B4CE7
:105730000F09254689B0BD437BD01D092646AE43DF
:10574000FAD00E465E402740F60F3E43254071D00A
:1057500024012142FBD0FF24AD19A4042D1B039585
:1057600001252D05DB02DB0AC9022B43C90A2943A7
:105770001E010901040F130F050121431701880BB6
:10578000820391432D098C46A90B1E438A0395433E
:10579000B30B9A0396433F09BA0B9403A7430296AF
:1057A0002E467E430497B6464E19D7190C460196ED
:1057B000544305977E43371B7646BF1B3601B646DA
:1057C000BE0B361900967646BC043719009C01D3EF
:1057D000641C00946400002F01D001263443029E13
:1057E000049F754366467E430496760034196E0026
:1057F00034190094029C019E1C196643751BAE4629
:10580000069465464519059C05956C4359437546B4
:105810000891691A0191049E01465143A41B049109
:10582000611A009C0791E10605D06109012211432C
:1058300002E072E06EE06109089D00272C0A2D0647
:105840006918049D7C412A0A2D066918019D624150
:10585000AC0DAD026D185441079A910D9202551985
:105860006141029A644658435443069B059A5A4341
:10587000121A131B9A0E9B015B187A41010B00054B
:10588000C3185141220A200644195A419A4200D2B3
:10589000491C01204002814203D315230226F6430E
:1058A00002E014230326F6432020C51AA940174618
:1058B000AF40DA400A4320460399D84009147318D0
:1058C00019055118039A3843D2075140AC4009D00A
:1058D0000122944006D30022401C5141002C01D1EA
:1058E000400840001E4A934212D3012203989206B8
:1058F000904207DB0520400709181A480143C012EF
:10590000414004E0032040070818C10FC9070020E8
:1059100009B0F0BD0020F107FAE705180C464C412C
:1059200011486D42A04115D394181A465A410E48A9
:10593000644290410ED301204A004005824209D3BF
:105940005A00824206D35940C90F084AC9070020AD
:105950001143DDE700200649DAE700000000FF07F9
:10596000FE070000FFFFFF7F0000E0FF0000F07F68
:105970000000F87F0121C9050123411842001B06E0
:10598000D3185B0E0AD0C1100722D206891840072F
:105990005242D14201D5520089187047090208D5F8
:1059A0000146002A03D0C10FC907002070471046E6
:1059B0007047420202D000200249704707210905C2
:1059C0000143F4E70000F87FF0B5FF252D04C60978
:1059D000C209FF2704462E400137CB093E43484009
:1059E0002A402B400746002A6BD0002B69D0AA42E0
:1059F00067D0AB4265D0002800DA32460125ED05BC
:105A000029432C4309022002090AD21A4B0C7F2495
:105A1000E31A434C000A7C44E35C7D2424041219FD
:105A200014145B00A218884201D3521C00E040000D
:105A300049420C465C4324115C43DB016415E318C6
:105A4000040A5C43C502200D0C4644436419250A30
:105A50005D432303EC0C0D46654300030019EB186E
:105A60004C42A34201D35B18401CD4052018002BE4
:105A700007D05B00C91804D3401C002901D140089D
:105A800040003F2189048A4209D3002A08DC11061C
:105A9000090F04D0032149074018C00FC007F0BD0B
:105AA00001224100120689187F2252069142F6D245
:105AB00005214907C84201D59010F0BDFF20C0055F
:105AC000F0BD002F00DA32461648AA4207D2AB4298
:105AD00005D21902090E17D0F80FC007F0BDFF2537
:105AE00063002D06AB42F9D84900A942F6D8AB4273
:105AF00001D1A942F2D0A94201D1002101E0610007
:105B00004908D0050843F0BD1102090EFBD0FF2063
:105B10000243D005F0BD0A460146104654E7000096
:105B20006F1F01000000C07F1F22030C02D10F2253
:105B300000041CD0030E01D10002083A030F01D16A
:105B40000001121F830F01D18000921E002801DB8B
:105B50004000521ED20551180212511819229040CD
:105B600004D3491C002801D1490849000846704760
:105B7000C10FC90700D04042012292071143D3E769
:105B800001218907D0E7000010B500F099FB001D46
:105B900010BD00BFCD1A010000487047500400201E
:105BA00010B5FFF7F9FF006810BD10B50446FFF708
:105BB000F3FF046010BDFFB504460D4681B02430EC
:105BC00000902168880604D51022E0699143216085
:105BD00000E00120A84201DD471B00E000270498F7
:105BE000A1697A191018081AA0612078C00602D499
:105BF0002046FEF7D9FB002608E003986268A168FA
:105C0000805D9047206A401C761C20620498864282
:105C1000F3DB2078C0060AD52046FEF7C5FB06E078
:105C20006268A16830209047206A401C2062384694
:105C30007F1E0028F4DC07E000986268A168405DE0
:105C40009047206A401C206228466D1E0028F3DC25
:105C50002046FEF7BFFB2078000602D5022005B0E3
:105C6000F0BD0120FBE70000FFB50C461E468FB0DB
:105C700003CA089009914F007D0D00D16D1E0021CF
:105C800008460020C0460321099A89050840002AD9
:105C900003DA8200801840080840800D01280A902D
:105CA00002DD0020C0430A90089807430DD0F04859
:105CB000F049281848430714189800281DD0754249
:105CC000291E1DDD0A9842421BE01898012802D0C7
:105CD0000020302104E00020F24305E02154401C64
:105CE000B042FBDB30460022189B002121540F9963
:105CF0008B600A60486013B0F0BDBD1B6D1CDFE710
:105D00000A9A002900DA69420BA800F07BFD0BAB70
:105D100007CB03AB07C30899099800F0DFFD6B467A
:105D200007C30146D4480918002D00910BDDD24964
:105D300003980A9A49424018002303A90390684631
:105D400001F03CF808E003990A9A0023081803A917
:105D50000390684600F0DCFF6B4607C30004000CAC
:105D600003D00020C043410800E01046189A002AE2
:105D700003D00022009215461EE0751E05D400F0E7
:105D8000A3FA303262556D1EF9D5012208430796F9
:105D900002D000227F1C04E02078302801D10022AC
:105DA0007F1E002A069787D01EE0112D07DA00F02B
:105DB0008BFA303262556D1C02460A43F5D1084316
:105DC00003D00098002819D00EE00021681E05E0DD
:105DD000235C625C63542254401E491C8142F7DB01
:105DE000A81B401E07950690079A18990020A054FA
:105DF0000F98079B069A81600CC07CE71126002053
:105E0000189059E7D21DF0B50D460446D10893B05D
:105E1000C90003C90C900D9111F0CEFA02460D98FD
:105E2000C00F01D02D2007E02068810701D52B206D
:105E300002E04007C00F4001032A0F9001D0072A5B
:105E400005DB03462946204600F084FA0EE120785F
:105E5000800601D5E76900E006272846652D04D0B5
:105E6000662814D0672D69D12DE00020112F0090F5
:105E700001DB112300E07B1C0CAA03A910A8FFF78B
:105E8000F3FE1199002610987D1C0E9142E001202E
:105E90003B460CAAC0070B900120009003A910A854
:105EA000FFF7E2FE119D12981099002600280E952A
:105EB00001D1781C0D18781B02D446427D1C761E39
:105EC000E81B00903AE0012F00DA01270020112F93
:105ED000009001DD112300E03B460CAA03A910A8A5
:105EE000FFF7C2FE11993D46109800260E912178C9
:105EF00009070BD40E99A94200DA0D4603A9012D1A
:105F000004DD4A19203AD27F302A06D0B84201DA9D
:105F1000011D04DA012100910FE06D1EEFE700285A
:105F200002DC86192D1A03E0411CA94200DD0D4652
:105F3000801B401C00900120C0070B9020780007B8
:105F400005D40098A84202DB0020C04300906946B7
:105F50000020C8720B98012102AF0337C90788429D
:105F600025D0022010902B2011900B9800280BDADE
:105F700040420B902D20119006E00B9800F088F91C
:105F800030317F1E0B9039701099481E00291090F7
:105F9000F3DC0B980028F0D111987F1E3870208810
:105FA000000501D5452000E065207F1E387001A85E
:105FB000C01BC01D0B900F98002800D00120411974
:105FC0000098C01709180B980818A169081A401EF4
:105FD000A0612078C00602D42046FEF7E5F90F98AC
:105FE000002805D06268A1689047206A401C2062A2
:105FF0002078C00625D52046FEF7D6F921E0002EF0
:1060000007DB0E98B04204DD03A86268805DA168DA
:1060100002E06268A16830209047206A761C401C2C
:1060200020620098401E002800900AD100F048F934
:10603000C06862680168405CA1689047206A401CA3
:10604000206228466D1E0028D9DC07E06268387897
:10605000A1687F1C9047206A401C20620B99481E53
:1060600000290B90F2DC2046FEF7B4F9032042E64B
:1060700001FCFFFF104D0000E1DFFFFF01694A1C3A
:1060800002610878704700B58FB002910021059138
:106090000549019379440391114604906846FEF73F
:1060A00035FA0FB000BD0000E5FFFFFF0A68107071
:1060B000521C0A6070470CC908399A4202D2531C1C
:1060C0000B601070704710B54369002B02D0C046BA
:1060D000C04601E0FEF78FF9012010BD127801469D
:1060E00024310A7000224A700122ECE71168002274
:1060F000D243E8E7026851181378016018467047E8
:1061000010B5D1600549794451610549794411625E
:1061100000211161114600F061F910BDEBFFFFFF96
:10612000330200004268002A08D001680B78491C3D
:10613000002B03D0521E06C0184670470121C160D3
:10614000881E70474268002A0BD0C3680168002B84
:1061500007D183688B4204D0491E521C06C0002020
:1061600070470020C04370470FB40A46002300B5B3
:1061700089B00DA900910C99CB60254B7B44069307
:10618000244B7B44002A079301D0042300E0002322
:10619000214A01930292214A7A446B4608920246B0
:1061A000002011F07DFB09B008BC04B01847F0B521
:1061B00007461E4615460C463B4685B000206A46FB
:1061C000C04301900020049004A800910291314640
:1061D000FFF7CAFF049902466018002D05D0002978
:1061E00001D0034600E023462B6000290ED0002A90
:1061F00002DD0099814209D03B466A463146001BC8
:10620000019004A800940294FFF7AEFF05B0F0BD22
:10621000A5FFFFFFBFFFFFFFFFFFFF7FA7010000FC
:10622000F7B50F460026009C2578641C002D05D08C
:10623000FFF7AAFC0068405DC007F5D12B2D02D006
:106240002D2D18D0641E3946029A204600F086FA99
:10625000002F04D03968A14201D10099396071053D
:10626000022400290BDA4042002803DDFFF794FCEA
:106270000460A007FEBD012080020643E3E700287A
:10628000F8DAFFF789FC04600048FEBDFFFFFF7FDE
:1062900001468008081A02091018020A1018020C98
:1062A0001018C008820012185200891A01E0401C20
:1062B0000A390A29FBD27047004870475004002071
:1062C00000487047700400200B4670B502468907ED
:1062D0008008084319469D08141AA9412509080792
:1062E000054308092C194841250A01060D43010AF6
:1062F0002C194141200C0D0428430D0C00194D416F
:10630000002140194D41C00869070843E908840F7E
:106310008D002543840024184D4124196D41121B22
:10632000AB4107E00925ED432C11521963410024CC
:10633000401C61411C460A250026551BB441F1D280
:1063400070BD10B50446FFF71FFC0068005DC00774
:10635000C00F10BDF8B51F46044601230068DB02DC
:10636000032601461840072A05DB002801D017A59F
:1063700006E017A504E0002801D016A500E016A548
:10638000102081432160A069C01E002FA06101D0B0
:10639000401EA0612046FEF707F8002F09D03846BE
:1063A0006268A1689047206A401C2062C01C20627D
:1063B00006E0206AFAE762682878A1686D1C9047B9
:1063C000761EF8D22046FEF705F8F8BD4E414E0085
:1063D0006E616E00494E4600696E6600F3B50C466C
:1063E0008FB000200C90012000260E9008460C3043
:1063F00003906269039801219047051E2ED0252D38
:106400002DD0216A8847002818D06269039801219D
:106410009047216A88470028F7D16269411E039896
:10642000904700E0761CA1690F988847216A884749
:106430000028F7D1E1690F988847DAE7A1690F983A
:106440008847A842074601D1761CD2E7E1690F9838
:1064500088477F1C02D10C98002877D06BE16269D5
:10646000039800273D46394690472A280CD1626997
:10647000039801219047012506E00A214F433F1868
:10648000303FEBD410200543626903980121904707
:10649000014630390A2903D2AC498F42DEDCECE7F1
:1064A000E90600D4AA4F6C280AD04C2810D06828DE
:1064B00024D06A282ED074280CD07A280AD00DE077
:1064C00062690398012190476C2823D004211CE0C5
:1064D000202005436269039801219047A760652841
:1064E00065604FD026DC582839D01ADC452849D0C1
:1064F00012DC252834D04128B0D143E062690398EA
:1065000001219047682802D008210D43E6E70120C9
:10651000C002DEE70220DCE7462833D047289DD1C1
:1065200030E05B2870D061282CD063286CD06428C0
:1065300094D161E06F284FD009DC662822D067280B
:1065400020D0692826D06E2817D12EE0EFE07028E1
:106550004DD073286FD075284ED078280DD154E0D7
:10656000A1690F9888472528054600D16CE7E169A5
:106570000F9888476D1C00D16DE7DCE00A224CE0E3
:106580000A2252E0012023466A460F99C04311F0C7
:1065900087F9C5E040212846234608436060A807E4
:1065A00001D5002239E000223FE0E80700D020E7D3
:1065B0002068011D21600068290501D5067018E7D3
:1065C000290701D5068014E7A90703D5F11706604E
:1065D00041600EE706600CE7402128462346084349
:1065E0006060A80701D5082217E008221DE059497C
:1065F00028460840606016E04021284623460843AC
:106600006060A807BCD5B9E715E0402128460843DB
:106610006060A80707D52346102201200F99C043C8
:10662000C046C0467CE01022234601200F99C0439B
:10663000C046C04674E0002163280B4601910091DA
:1066400002910D9102D05B2807D03BE0E80601D40F
:106650000120A0600120009034E0E06801210D904D
:106660006269039890475E2807D101200190E06895
:1066700001210D906269039890472169002906D194
:106680000B4604AA8F00491C0829D351FADB0028C5
:1066900051D02169002926D00298401C02906269DD
:1066A0000398012190475D28F1D10198002808D076
:1066B000002004AB8100401C5A58D24308285A508D
:1066C000F8DB04AB2069002820791CD04007029A2F
:1066D00000980D9B0092224602901F480F991DD5ED
:1066E000C046C0461CE0C117C90E09184A11490925
:1066F000930004AA9A184901411A1368012088409E
:1067000003431360CBE74007224613480F9902D595
:10671000C046C04604E0FDF7B5FF01E0C046C046F4
:1067200000280ADA401C06D10E98002803D0002069
:10673000C04311B0F0BD0C98FBE7E90702D10C99FA
:10674000491C0C91361800200E9052E6CCCCCC0C93
:10675000FFFFFF7FF1F7FFFFFEFFFFFFF7B51546D5
:1067600082B00027029C2078641C0197302802D058
:10677000002D15D015E020780127641C782804D05E
:10678000582802D0002D09D00BE0002D01D0102D8B
:1067900007D1207800271025641C02E0082500E0BE
:1067A0000A250026009610E0009901276943081881
:1067B00029467143020C80B200908E18380486423C
:1067C00001D3012001902078641C294600F017FCB9
:1067D0000028E9DA0398002805D0002F01D0641EB4
:1067E00000E0029C04600198002806D0FFF7D4F96D
:1067F00002210160C81E05B0F0BD009930040843B5
:10680000F9E70000F7B516468AB0334878446C467D
:1068100003467C33C06F5A689B680DC42E48784489
:10682000763003AC0DC80DC43720C00108183721DD
:106830001B30FEF701FA05460C46803D1B3C02D595
:106840006442012000E000200027099010E0E007EA
:106850000CD00C2020497843794432464C394118F9
:106860006846012300F054FA6B4607C364107F1C8E
:10687000002CECD1184F7F442E3F16E0E80712D0D1
:106880002001C0190EC80691089307920068F042D3
:1068900001D1981908903246012306A903A800F0F7
:1068A00037FA03AB07C36D10641C002DE6D10998BD
:1068B000002806D032466946012303A800F07EFA7C
:1068C00005E001233246694603A800F021FA0A9B3D
:1068D00007C30DB0F0BD0000C81101000346400021
:1068E0000A4610B5400D0BD00121C9070F24A402A0
:1068F00000191C0364082143540D2143D20207E010
:1069000000210120F2E7D40F490021435200401E2C
:106910000029F8DADB0FDB07184310BDFFB50D4681
:10692000144685B04868516810F02EFD0091019022
:10693000A868A16810F028FD02910390A86861681A
:1069400010F022FD029A12188242029201D2012016
:1069500000E00020019A0B18D2180028019202D002
:106960008A4202D903E08A4201D2012000E00020DD
:106970000099081800906868A16810F005FD029A57
:1069800012188242029201D2012000E00020019AF6
:106990000B18D2180028019202D08A4202D903E0D3
:1069A0008A4201D2012000E00020009908180090DE
:1069B0002868216840004900400849084018FA4901
:1069C000471814E001994000C90F0843009001984E
:1069D00002994000C90F08430190029803994000B2
:1069E000C90F08430290039840007F1E039000984F
:1069F0000028E7DA0898002801D0EC4E00E00026D5
:106A0000B74201DA012000E00020002804902AD0DB
:106A1000F71BF806C00E15D0029B2021091A039A15
:106A20008B401A430392029A019BC2408B401A4347
:106A30000292019A009BC2408B4000991A43019236
:106A4000C14000917B110DD06F460320C11A03D5C0
:106A500000218200B95003E08A008100BA587A50C0
:106A6000401EF3D5374603980299002800D0012034
:106A7000014308980291002808460CD0002800D055
:106A800001200199019A490508430121D20AC9024E
:106A9000D202019200E001210E9B0122D207012BBC
:106AA00002D0002B03D013E0002807D120E0904251
:106AB00004D890420CD1019B0B4209D0019B59187C
:106AC000019105D10099491C009101D17F1C0092D0
:106AD00000280DD0102108460020C0460498002848
:106AE00006D00F98002803D0082108460020C04691
:106AF00028682168019B009A4840C10F0598C90782
:106B000039430EC009B0F0BDFFB587B0099A0898A7
:106B100008995368926840688968964600220393F2
:106B200017469446089A12685300099A5B0812683F
:106B3000520052089A1A9E4BD4180A9A002A01D081
:106B4000352200E0402206920022012315460492DD
:106B5000DB07059324E0002D05D175460346039E0F
:106B60004D1BB34109D375466646039B491B049DE3
:106B70009841059B7519AC465F4163463B4308D07D
:106B8000059B049EDD0776082E435B08049605935B
:106B900001E0521E641EC50FED0749184041521C0A
:106BA000069B9A42D7DB002D04D17546039A6B1AD7
:106BB000824101D203200CE0039A0B466B40424015
:106BC000134303D0014303D0012002E0022000E080
:106BD0000020614601910021009702910A99002945
:106BE00005D0614640020143704B019102E08007ED
:106BF000002302909C4201DA012000E000200700FF
:106C00003AD01A1BD006C00E15D0029D2021019C3F
:106C1000091AC5408C402543029C8C4000D00124B9
:106C20002543019C0295009DC4408D4000992C4352
:106C30000194C140009154111DD06D4602210022E3
:106C400002290CD10320001B07E0002804DB86008A
:106C5000AE59002E00D00122401C0328F5DB081B92
:106C600002D588002A5004E08000285810438A008A
:106C7000A850491EE3D51C460A98002802980CD05B
:106C8000002800D001200199019A490508430121FB
:106C9000D20AC902D202019200E00121109B012216
:106CA000D207012B02D0002B03D013E0002807D11C
:106CB0001FE0904204D890420CD1019B0B4209D0B6
:106CC000019B5918019105D10099491C009101D1EE
:106CD000641C009200280CD0102108460020C046F9
:106CE000002F06D01198002803D008210846002064
:106CF000C04608980999019A009B006809684840B5
:106D0000C10F0798C907214382600AC00BB0F0BDCC
:106D100000B585B0019300920A460146002302A8FF
:106D2000FFF7FCFD02A807C805B000BDFFB50A4685
:106D30001F4685B00799019301230091014602A8DF
:106D4000FFF7ECFD02990398049ECA0F4900D20791
:106D500000920F22490892028C1A0021002800DBC1
:106D60000C46450013486D08844214D3079A002A44
:106D700004DA441E0026104DF64302E004460D4698
:106D80000E46102108460020C046002F03D00421E3
:106D900008460020C0462005E90A08430099084338
:106DA0006905F20A1143ADE602C0FFFF013C000095
:106DB000FF3F0000FF070000FFFFFF7F00B585B029
:106DC000019300920A460146002302A8FFF79CFEA9
:106DD00002A807C8A8E7FFB50A461F4685B007996D
:106DE000019301230091014602A8FFF78DFE02994D
:106DF0000398049ECA0F4900D20700920F22490847
:106E000092028C1A0021002800DB0C464500114834
:106E10006D08844214D3079A002A04DA441E00261F
:106E20000D4DF64302E004460D460E46102108467D
:106E30000020C046002F03D0042108460020C04691
:106E40002005E90A0843009908436905F20A11433D
:106E500058E60000FF070000FFFFFF7FF8B5264C53
:106E60004E00069DA6420AD8A64201D1002806D1AE
:106E70005E00A64203D8A6420AD1002A08D00D24FB
:106E80002404254233D02946002000F0A3FBF8BD9E
:106E90000C461C4311D4994207D0C81A02D3EFF311
:106EA0000080F8BDEFF30080F8BD801A02D3EFF345
:106EB0000080F8BDEFF30080F8BD09242407E50049
:106EC0008B4207D0581A02D3EFF3008006E0EFF3AD
:106ED000008007E0101A03D3EFF30080A04303E023
:106EE000EFF30080A043284380F30088F8BD0095AD
:106EF00000F088FBF8BD00000000E0FF70B505461B
:106F00004800440D124B0020002C0AD0634008D0EA
:106F10009A4206DA6642B24203DD12054019514137
:106F200070BD002C08D0002B09D0C90FC907002A5A
:106F3000F6DB084A114370BDC90FC90770BD28466A
:106F40000A03104302D00020034970BD284670BDDB
:106F5000FF0700000000F07F0000F87F10B5FF235E
:106F60001B0644009C421DD84C009C421AD8034684
:106F7000124A0B4307D4401A02D3EFF3008010BD2E
:106F8000EFF3008010BD081A03D3EFF300809043A5
:106F900005E0EFF3008001219043C907084380F327
:106FA000008810BD0D231B041A4204D01146002096
:106FB00000F010FB10BD00F02FFB10BD0000009092
:106FC0007546FFF779F9AE46050069465346C00895
:106FD000C000854618B020B5FDF708F960BCB6467C
:106FE00000260027C0C5C0C5C0C5C0C5C0C5C0C536
:106FF000C0C5C0C5403D490849008D4670473A2884
:1070000000D23038202302469A43412A01D3104649
:107010003738884201D30020C0437047FFB58BB09A
:107020000878FF2806D0491C2D2805D00023002011
:10703000009009E000200EE00123F8E7009A0A24FE
:1070400062438018491C00900878FF28F6D1002B75
:1070500002D0009840420090002503952C460D98E0
:1070600000782D2801D02B2815D10D99491C2D28E9
:107070000D9102D0002003900DE00120FBE7401CA1
:10708000214600270A223B460D90284600F0DCFAF4
:1070900035183C464C410D980678FF2EEFD1002163
:1070A00008460020C0460399002902D081004018FC
:1070B00040080002860F012E01DD0026F6430E99DE
:1070C00000984718284620430BD0FF20F530C742D0
:1070D0001ADA0398C1070B98002E41600ADD0120DF
:1070E00009E00398C1070B9841600B9900200860E4
:1070F0000FB0F0BD00200B990860FEF74DFD022196
:107100000160182108461AE0FF20F530874219DD9A
:10711000002E02DAFC48784401E0FC48784406C8B6
:107120000B9806C00B9803994068C90708430B9950
:107130004860FEF731FD022101601421084600205D
:10714000C046D5E7002108460020C04639000A9015
:1071500001D5724200E03246002900DA794207A8E0
:10716000FFF750FB07AB07CB04AB07C3E848009021
:1071700000200146214304D12C460546E44920392C
:107180000091210C0904014306D1290C24040C436D
:1071900000992D0410390091210E0906014306D1F2
:1071A000290E24020C4300992D0208390091210F69
:1071B0000907014306D1290F24010C4300992D0131
:1071C000091F0091A10F8907014306D1A90FA4004F
:1071D0000C430099AD00891E0091E10FC9070843D7
:1071E00004D100986D196441401E0090002F029553
:1071F000019406DD32466846012304A9FFF796FD97
:1072000005E001233246684604A9FFF7E4FD044681
:1072100003980D46002802D00120C00744400021F9
:1072200008460020C0460A99BA4E48400007800F21
:1072300007D160004008284303D06000400DB042F1
:1072400014D1FEF7A9FC022101606000400DB0429C
:107250000CD1B148784406C80B9806C00B98E10FD2
:10726000C907406808430B99486041E70B984460A0
:107270000B9805603CE7FFB51F4695B00020002540
:107280000C909E685C68ED431390FFF719F8C06896
:107290000168405C1490B96916986D1C88470A9083
:1072A000396A88470028F6D10A98401C0AD00D2078
:1072B000C0018443002E12DD0A982B2809D02D2806
:1072C0000DD103E00020C04319B0F0BD01208002C1
:1072D0000443B96916986D1C8847761E0A906005AC
:1072E00004A901D52D2000E02B206A46491C10740A
:1072F00010A8002E0D910B903BDD0A98692805D04F
:10730000492803D06E2801D04E281DD13B4603905A
:1073100002200296179A1699C0430095019410F026
:10732000CFFAC11CD0D10FE0B96916986D1C8847FF
:107330000A900120761E40020443179805601398B6
:10734000401C002E139014DD0A983028ECD07828C9
:1073500001D058280DD1139801280AD13B46029636
:10736000179A1699001F0095019410F0A1FAC11CFC
:10737000AAD114990A98884245D18020044308E094
:107380000C981799401E0C90012040020443681C81
:107390000860B9696D1C1698761E884730280A90D7
:1073A000EED030E01499884205D1200603D4802025
:1073B0000443761E1DE00A9810F0C1F8002825D07D
:1073C00001210A9849020C430D9908AA033230386A
:1073D000761E914208D208700D98401C0D90200630
:1073E00007D50C98401E03E0200602D40C98401CE0
:1073F0000C90A00502D51799681C0860B969169809
:107400006D1C88470A90002ECCDC59E0002E57DD19
:107410000A98652801D0452852D1A00550D50320EF
:10742000B969000284436D1C1698761E8847002EA9
:107430000A900CDD2B2804D02D2808D1FF20013024
:107440000443B96916986D1C8847761E0A90E005BA
:1074500001D52D2100E02B210B9801700B98401CC9
:107460000B90009025E0012012A9400204430B98E4
:107470000131761E88420ED20A980B9930380006E8
:10748000000E087003D100990B9888420AD90B9816
:10749000401C0B9006E0E00501D5204801E01F48A4
:1074A00040420C90B96916986D1C88470A9017984D
:1074B0000560002E04DD0A9810F041F80028D2D1B2
:1074C000F969169888470D99FF2004AA08700B994E
:1074D000087000200E900F900C9B10A90EA8FFF7CB
:1074E0009DFDA00502D40120C043EDE62420044206
:1074F00016D0E00720D138680F9A0E99031D3B6023
:10750000006806C018E000001228010004280100ED
:107510003E400000FF070000CC260100F1D8FFFF2D
:107520000EA968460FF072FFE00705D13868009A8F
:10753000011D3960006802602846C5E610B50446A2
:10754000C046C0462046FCF725FE10BD024670B579
:107550000A4392072AD11E4DEE0104C808C9541BE4
:107560009443344017D0D0B2D9B2401A2106014317
:1075700010D190B299B2401A210401430AD11002ED
:107580001902000A090A401A2102014302D1100E11
:10759000190E401A70BD9A42DFD010BA19BA88424B
:1075A00001D9012070BD0020C04370BD02780B7866
:1075B000401C491C002A09D09A4207D102780B7856
:1075C000401C491C002A01D09A42EFD0D01A70BD4D
:1075D00001010101C80212D54803400F002804D060
:1075E000C803C043012188407047EFF300800001C9
:1075F000000903210907084380F300887047002031
:107600007047000010B500200249029A00F034F8DB
:1076100010BD00000000F87F10B5024800F02CF803
:1076200010BD00000000C07F10B5202A04DB014619
:10763000203A9140002010BD914020239C1A03461F
:10764000E3401943904010BD4343514330B55C18AB
:10765000010C130C0D4692B25D4380B251432C19BC
:10766000054655430A0C09044D1962415843010C63
:1076700000044019514130BD10B50C461107090FE7
:10768000092904D00A290AD008290CD104E011469E
:107690000820FFF79FFF06E0510606D501E05106DE
:1076A00001D50120C007214610BDD10607D5010133
:1076B0000909CC084907000E0006044309E0410F00
:1076C00020024907000A0143200E00061D22D14175
:1076D00001430846E7E7000001491820ABBEFEE77A
:1076E00026000200FFB51F4689B013981299400585
:1076F000C00FC00705900020079005460446461EAF
:10770000049002903C20491C12910690B9690A9895
:10771000884703901498401E14901498002841DD67
:1077200003982E2816D01021FFF769FC002834DBBF
:1077300001210491079901431AD0069900290CDB15
:10774000069AC117FFF770FF054306980C43001F08
:10775000069006E0012002900EE0002801D00120F2
:107760000543012007900298002805D1361D03E04B
:107770000298002800D0361F1298401C1290B96958
:107780000A98884703901498401E14900498002883
:10779000C3D00B9912980860BFE70398702808D0EF
:1077A000502806D0F9690A9888470498002815D00F
:1077B00051E00020039001200290049800280AD094
:1077C0001298401C1290B9690A9888471499491E6A
:1077D0000029149106DCF9690A9888470120C04302
:1077E0000DB0F0BD2B2804D02D280DD10020C043B2
:1077F00002901298401C1290B9690A98884714990F
:10780000491E00291491E6DD411CE4D00A21FFF74E
:10781000F6FB0028DFDB03990A2251430818039086
:107820001298401C1290B9690A9888470A21FFF7FC
:10783000E6FB14990B9A491E149112991160149940
:10784000002901DD0028E6DAF9690A9888470299DB
:107850000398484386191398242108400490284629
:10786000204304D0A10F8907090002D006E0059843
:107870009BE0A90FA4000C43AD00B61EE10FC907A1
:10788000080002D16D196441761E0498002803D0C7
:107890000B2002905D4803E0282002907D20C04329
:1078A0008642039007DA811B02980818412802904B
:1078B00001DD41200290029A01200021521EFFF7B3
:1078C000B3FE024628400B462140084301D0012068
:1078D00000E0002007900020521EC04343412A4090
:1078E00023401A4301D0012000E0002007990690B0
:1078F000014352D0002108460020C0460321059ACA
:1079000089050840002A05D082008018C20F10188F
:10791000401008408015012802DD0020C04301E02E
:10792000012815D0401C38D00798002835D006987B
:1079300000280DD1029A01200021FFF775FE284092
:107940002140084301D0012000E00020002824D07D
:10795000029A01200021FFF767FE034640198C467A
:1079600061412A1A8C410FD30298402807DD049800
:10797000039E002801D0343E02E0173E00E0761C52
:1079800001240025E40708E05B1E62460024E4436E
:107990006241DD43D44305400C4003980121081A9D
:1079A000B04206DA1A490598084301900020009079
:1079B0000EE060006205010BE80A1043059A009092
:1079C00068460A4313490A43314601920FF08AFD83
:1079D000049800280AD01398C00714D13868019A77
:1079E0000099031D3B60006806C00CE002A86946D0
:1079F0000FF00CFD1398C00705D13868029A011DDD
:107A00003960006802601298EAE6000002FCFFFF9D
:107A10000000F07F0000F03FFFB51D4687B01198D1
:107A2000484A109C129E40051399C00F761EC0074D
:107A30000243019200220092FF22D205104320222D
:107A400091434929059003D017464E2928D04FE08D
:107A50003DA002AA0BC801270BC2A9690898641CA3
:107A60008847761E014607D402A8C05D002803D0CF
:107A70002022914381420AD0E96908988847032F60
:107A800036D0082F34D00120C0430BB0F0BD7F1C8E
:107A9000032F01D0082FE0D10999601C0860DCE7B2
:107AA000A9690898641C8847761E2DD4B8434128DC
:107AB0002AD1A9690898641C8847761E24D4B84343
:107AC0004E2821D1A9690898641C88470199012290
:107AD000D204114301910599D200114305910999EE
:107AE000761E0C6001D4282806D0E96908988847DA
:107AF0001198C00712D023E0A9690898641C884730
:107B0000761E01D4002803DAE96908988847BAE7A5
:107B10002928F1D10998641C0460E9E7119824210F
:107B2000084207D02868019A0099031D2B6000685D
:107B300006C005E028680599021D2A6000680160FA
:107B40002046A2E70000F07F494E46494E4954596D
:107B500000000000704770B58C180578401C6B075A
:107B60005B0F01D10378401C2A1106D10278401C1A
:107B700003E00678401C0E70491C5B1EF9D12B07F0
:107B800005D40023521E0DD40B70491CFAE703786C
:107B9000401CCB1A921C03E01D780D70491C5B1C25
:107BA000521EF9D5A142D8D3002070BDB0B5014610
:107BB000806A836D826D5024234206D0D20621D480
:107BC000006D426B08469047B0BD01214B021A433D
:107BD00082650268D3681B059B0F1FD1837E002B33
:107BE0001CD113681B0719D593685B070DD4034696
:107BF000583354680C25AC435460FF2402341A688F
:107C0000A24309E008F08BFCB0BD826D2023134332
:107C1000836503465C33C26D0A431A6008F078FC42
:107C2000B0BD80B5806A816D40220A438265C16D16
:107C300004220A43C26508F072FC80BD80B5806AE8
:107C400008F06CFC80BD000070B5054600688168D6
:107C500082680024D20726D00222114023D18168F5
:107C600005220A40012A16D18168374A0A40911C30
:107C700081600321016009F029F9064628688068BF
:107C8000C00710D009F022F9811B28680329F6D318
:107C90008168C907F3D0A86D10210143A965E86D7B
:107CA00001242043E865204670BDC046F0B581B090
:107CB00005460024009400688168C9071AD18168CC
:107CC000214A2F32114208D0A86D10210143A96525
:107CD000E86D01242043E8650CE081681A4A1140F0
:107CE00001273943816019480068000205D4687E85
:107CF00001280FD1204601B0F0BD15480068154994
:107D0000FCF790FF401C009000980028EFD00098EE
:107D1000401EF8E709F0DAF8064628680168C90746
:107D2000E8D18168C90704D18168074A1140394305
:107D3000816009F0CBF8811B28680329EED3016824
:107D4000C907EBD1C0E7C046E8FFFF7F0827014025
:107D50006C000020400D0300F0B581B018480024ED
:107D60000480184F3C80184D18492846FCF74DFEFA
:107D7000174E3046FCF778FD0146304600F0B6FB62
:107D800038800090134F791C13A228463346FCF725
:107D9000EBFA13480480297824290DD100242146C8
:107DA0008F4207D06A185278491C2A2AF8D1491CF8
:107DB0000C4600E0054901800148048001B0F0BD97
:107DC00048640020F6180020D4110020DC050000D3
:107DD000D84E0020DB05000025732C25582A000012
:107DE000E854002070B50B4C2178012910D80C25DF
:107DF0006943094E705070180021416002F034FE52
:107E000001462078421C227045437219916070BD72
:107E1000FF2070BD784E0020044E002080B502F097
:107E2000ADF90AF081FD05480549016004F096FAB4
:107E3000044806F021FA02F02BF980BD44370020F7
:107E40003DA00008E957010880B500F0D5FB0120EE
:107E50004202024802490DF0DEF880BD985A002027
:107E6000A41D0020F0B583B01348006800900120E5
:107E7000850212480369124C124A20462946FCF733
:107E800073FA114F388081B2204600F0FDFB0020CC
:107E9000009001900DA20226204629463346FCF7A9
:107EA00063FA388081B2204600F0EEFBCC483146C0
:107EB00000F0EAFB03B0F0BD187B0108D47E010896
:107EC000A4190020FE7E0108564E0020565453206F
:107ED000474F4C462050726F6A656374202D2056C0
:107EE00025642E25642E256400000000F0B581B0C5
:107EF000494C206832210DF01FFF002800D188E096
:107F00000DF05CFF02F0B0FD2060444800780128CD
:107F10007FD1434D2C680CF061FB20182860414D47
:107F20002C680CF057FB201828603F4D2C680CF093
:107F300031FF201828603D4F3C680CF053FB3C4952
:107F400000260E7024183C603A480178491C0170E4
:107F5000CDB20A2D5BD30670374806603E603048CC
:107F60000168009106603048076806602D4908687E
:107F70000E602946FCF756FE3049086000982946F5
:107F8000FCF750FE2E49086038462946FCF74AFEA9
:107F90002C49086020462946FCF744FE2A4908601F
:107FA00002F06AFD294CE07D00F05AF8A075401EF1
:107FB000C0B2032801D3304602E0C1002448C840C3
:107FC000C0B20DF07DFB234D287800280CD001288D
:107FD000174A17D12068412109060FF098FA0028A6
:107FE0000BD00120124A0DE020681B490FF09AFACD
:107FF00000280F4A05D1012001E000200C4A28701A
:1080000000E0002001211170207514480170034820
:10801000067001B0F0BDC046DC170020440400200B
:1080200034640020306400203C6400203864002068
:10803000AD180020DA17002040640020A8180020A6
:10804000546200209C1800207865002058620020AF
:10805000030102004C040020000020416255002072
:10806000B0B50446284D2878032814D87844007900
:1080700040008744011119290AF0D2FE00280FD1CF
:1080800001210E2C0A4600D800222878431E5C42AB
:108090005C41144329D0B0BD0AF0C2FE002827D0AD
:1080A0002878022102281EE00AF0BAFE002817D024
:1080B0000AF0C0FE414241412878C21E534253415A
:1080C0000B43E8D1032110E00AF0AAFE0146401E4E
:1080D00081412878424242410A43DCD1002104E038
:1080E0002878002100280846D5D029700846B0BD60
:1080F0000021292C01D30A4600E0012228784342BE
:1081000043411343C7D1F0E7AF180020B0B582B0A8
:1081100027490A78824249D00870002826D00128D1
:1081200044D1244800680090012081022248C3689D
:10813000224C234A2046FCF717F9224D288081B2B1
:10814000204600F0A1FA27A119222046FCF7FEFBE9
:1081500018212980204600F097FA2148022100F0DA
:1081600093FA02F081FC264908601FE0114800687C
:108170000090012081021048C368104C104A20462C
:10818000FCF7F2F80F4D288081B2204600F07CFA0F
:108190000DA117222046FCF7D9FB16212980204685
:1081A00000F072FA0E48022100F06EFA02B0B0BD83
:1081B0005C010020187B0108D47E0108A41900206E
:1081C000FE7E0108564E0020435055205354415422
:1081D00045202D2049444C4520535441544500002E
:1081E00006860108435055205354415445202D2004
:1081F0004143544956452053544154450000000022
:108200009019002070B586B00020049001240294DB
:1082100040250195054E01A9304608F071FD304614
:108220002946224608F04BFE06B070BD00080050FB
:10823000F0B581B0044600270F4E35682846FCF79C
:1082400013FB024620462946FCF730FB002805D0E8
:1082500008367F1C402FF0D10B200AE0F8B211380D
:10826000012805D82C212046FCF78DFA0028F3D0F0
:10827000307901B0F0BDC046E47B0108F0B583B0B1
:108280000291054600241D4F3E593046FCF7ECFA9A
:10829000024628463146FCF709FB002804D010347A
:1082A000F02CF1D1102027E0154800680090012043
:1082B000860214480369144814A23146FCF754F8A6
:1082C0001449088081B2104800F0DEF912A20E486D
:1082D00031462B46FCF748F80E49088081B20A481F
:1082E00000F0D2F90DA0022100F0CEF93C19A268ED
:1082F000284602999047207903B0F0BDE47D01083B
:10830000187B0108D47E0108A419002025732C25B0
:10831000732C0000564E0020257300000D0A00004B
:1083200010B508481C21FCF770FB074C2C21204697
:10833000FCF76BFB302020742072562060702046C2
:1083400010BDC04654650020C0350020F0B599B07E
:108350000E4607460EA80290183014242146FCF75A
:1083600054FB03A8019018302146FCF74EFB21CFA7
:1083700000379ACF10930F940E9711919ACE3268CE
:1083800076680597049203966A1E129264301390E1
:108390000694581E0790643108910298FCF78CFBF4
:1083A00004460198FCF788FB0246A04202D9104619
:1083B000214605E00020A242014605D22046114692
:1083C0000FF0DAF8FDF72CF919B0F0BD80B5FDF724
:1083D000D1FA064A064BFCF799FE0022054BFDF741
:1083E000A5F9FDF7E7F80449087080BD9A999999B5
:1083F000999909C000005940AC180020F0B589B027
:1084000015460E460746FCF72FFA00280CD000222E
:108410001146BA5C2E2A04D0491CCAB29042F8D840
:1084200002E0CCB2032C03D20025284609B0F0BDEF
:108430000195039607AE0025357104A802900581C9
:10844000079504950595A21E30463946FCF7E0FADB
:108450003819811E029C2046FCF7E0F93046FCF7F3
:1084600085F9064620460FF071F804460F46B0B273
:10847000FDF751F906460291194B204639462A4626
:10848000FCF774FE3246039C029BFCF73FFE074656
:108490000E46012C07D10022124B384631460FF010
:1084A0002BF80028C1D1022C07D100220E4B3846F0
:1084B00031460FF021F80028B7D101984E2801D09D
:1084C000452805D138463146FCF766FC0546ACE741
:1084D00038463146FCF760FC0121CD074540A4E752
:1084E00000004E400080564000806640B0B50C4C05
:1084F000002912D0184A0378634000245D08DB0786
:1085000000D055402B46651C072C2C46F6D3491E3F
:10851000401C00291C46EED100E0234698B2B0BDB5
:10852000FFFF0000B0B5002A12D00B4B0C7844407E
:1085300000206508E40700D05D402C46451C072854
:108540002846F6D3521E491C002A2046EED100E0F0
:108550000446A0B2B0BDC04601A0000080B50248EC
:1085600008F0D0F980BDC046D041002070B5044667
:108570000D4801468031E16425680C4EB54200D3B8
:108580001C30616C032291434018A064E8B20838A3
:108590001421FCF747FBB54200D3C01D1F21014049
:1085A00001208840206570BD000802400804024098
:1085B00070B5C46C056D6560446D002C02D0846D8F
:1085C000C56D6560046C456C1C262E400125B540C8
:1085D00065600468636080681028134600D00B460D
:1085E000A360102800D01146E16070BD0148012150
:1085F00001707047F418002080B5024800F004F8BC
:1086000080BDC0467973010810B5234C0C200021B1
:10861000084AE1235B020CC421606160A160E06054
:10862000083C204618301421FCF7EFF9204609F0E9
:1086300076FF10BD003C014010B582B00192890068
:108640000A4A51580091800009490B5801208102C3
:10865000084C09A22046FBF787FE0A49088081B230
:10866000204600F011F802B010BDC046187B01088A
:10867000D47E0108A419002025732C25732C2573A2
:108680000D0A0000564E002080B50A4601460248F9
:10869000642309F0F5FF80BD0C4C002010B50C4C94
:1086A00020683A49096841430120C00409180020A4
:1086B00000F002F937480168002901D0491E016025
:1086C0002068002801D13D480068401E206010BD90
:1086D0009C190020F0B581B00121C902884231D82F
:1086E0006C460027A77001016170000920708D4859
:1086F000202631463A4608F0E2FB06200DF06EFADD
:108700000125884831462A4608F0D9FB0EF046F884
:10871000844831463A4608F0D2FB30460DF05EFA06
:108720000321204600F0BCF87E4831462A4608F076
:10873000C6FB0EF033F804480078002802D064200D
:1087400008F006FA01B0F0BD544E002070B50F4994
:10875000096841430E480818000B80B2FFF7BAFFC2
:10876000164D286800280CD00024264620460CF020
:1087700059FA022800D1761C641C28688442F5D37B
:1087800000E000260348066070BDC0464464002037
:10879000010008007C4E002010B508490968491EF8
:1087A000814201D1002400E0441C20460CF03AFA3A
:1087B000002802D02046FFF7C9FF10BD4C4E002014
:1087C000EFF3108072B6FEE7B0B501229304274A9A
:1087D00054681C435460EFF31083EFF3108472B6B7
:1087E000002420C920C0651C3F2C2C46F9D31068FA
:1087F0008003800FFBD183F31088B0BDF0B581B04A
:1088000000900324250408F061FB174F3D60174ECC
:1088100031688903890F09D00099451808F056FB83
:10882000A8421DD2386831680842F7D13068104933
:10883000014039600F4830603868002803D00E4985
:10884000486001240CE008F041FB009945183068AD
:10885000400304D508F03AFBA842F8D300E0002416
:10886000204601B0F0BDC046D41F002010200240B9
:10887000FAC30000FBC30800BC4E002080B50248CC
:1088800008F058FB80BDC0466042002080B50A4613
:1088900001467D208300074809F058FB80BDC04693
:1088A00080B50A4601467D208300024809F004FC99
:1088B00080BDC04600430020F0B583B0019002ADFA
:1088C000A970080A6870080C28700DF067FF154839
:1088D000202700263946324608F0F1FA06200DF02E
:1088E0007DF901240F483946224608F0E8FA0DF0D8
:1088F00055FF0C483946324608F0E1FA02200DF0E7
:108900006DF903212846FFF7CBFF01980DF066F9BA
:1089100004483946224608F0D2FA0DF03FFF03B072
:10892000F0BDC04600040050B0B586B004463648DD
:108930006421FCF76AF80F2C5ED8C0467C44247989
:108940006400A744070A0D171A1D202326292C416D
:10895000494C4F522D48036849E02C48436846E093
:108960002A4884680EF072FA0090274864213AA2DF
:1089700023463FE02548C36839E02448036936E0D0
:108980002248436933E02148836930E01F48C369C6
:108990002DE01E48036A2AE01C48436A27E00BF0DA
:1089A000B3FD2049086019498B6A017842788078C4
:1089B00000240225009501940294039104920590ED
:1089C0001148642118A215E01048C36A08200090DD
:1089D0000D4864210FA20DE00C48036B07E00B4823
:1089E000436B04E00948836B01E00848C36B064809
:1089F0006421074AFBF7B8FC0348FBF735FF1B4926
:108A0000088006B0B0BDC046F41F002078000020EA
:108A1000C097010825732C41505020504944203AFA
:108A200020256400D40C002025732C4150503120A7
:108A3000566572203A205625642E25642E25642022
:108A40002C41505032205665723A205625642E250E
:108A5000642E25640000000025732C4654502045E8
:108A600052524F52203A202564200000382800201E
:108A7000F0B581B07D4F3878401E0C2800D9EEE269
:108A80004000C04678448088400087440C00930032
:108A9000AA00BD001D00D6003C0151016601310055
:108AA0007701720084007248724900F091FF01283A
:108AB00000D0ADE13878022800D1D0E20220387031
:108AC000042009216C4AC8E26C48102102F090FF92
:108AD000401E411E88413978891F4A424A4102435B
:108AE00000D0BCE20620387004200921644AB4E2B8
:108AF00002F0E0FEFE210140022900D0AFE2614811
:108B0000406A0090012085025F4803695F4C604A1B
:108B100020462946FBF728FC5E4E308081B2204675
:108B2000FFF7B2FD5C4803785CA220462946FBF7BC
:108B30001BFC308081B22046FFF7A6FD5D48022174
:108B4000FFF7A2FD5C480078012803D15248007865
:108B500002283CD059480078012800D0E8E1387854
:108B60000B2800D17BE20B20387004200921544AE5
:108B700073E203F0C9F9401E411E884139780D396E
:108B80004A424A41024300D069E20D203870042075
:108B900009214C4A61E200203870042009214A4A28
:108BA000FFF74AFD49480078092800D02CE108F079
:108BB00053FA54E246480078022800D138E10128EF
:108BC00000D04CE204200921424AFFF735FD3878F5
:108BD000032800D143E203203870042009213E4AD3
:108BE0003BE23EA0022102F0BFFE401E411E884132
:108BF0003978091F4A424A41024300D02FE204203B
:108C000038700921394A28E202F09AFE032800D17F
:108C100032E1022800D022E23878052800D11EE295
:108C20000520387004200921314AFFF705FD31483D
:108C3000002101603048018011E202F0C5FE1649B2
:108C40000870032800D13AE1022800D007E22B483F
:108C50000BF02AF9032800D99CE140007844808871
:108C6000400087444D009A01AE01B1014128002027
:108C7000442800200D930008E28001082193000899
:108C80005A810108187B0108D47E0108A41900202C
:108C9000FE7E0108564E00202C100020464F544105
:108CA00020726561645374617465203A20202564E4
:108CB00000000000068601084328002058200020FC
:108CC000558301085A8201081A83010842280020AE
:108CD000552C0020BD830108C9820108666F7461AC
:108CE00066696C652E62696E0000000032810108C1
:108CF000EE82010834280020302800203042002075
:108D0000FB480A21FDE07D200101D64802F070FEFB
:108D1000401E411E8841397808394A424A4102437F
:108D200000D09CE10820387004200921CE4A94E14B
:108D300002F04AFEEF490870032800D1EBE0022858
:108D400000D08CE1EC4D2878012800D0F4E0F14807
:108D50000188F1480BF064FAF6E002F0C5FD4142EB
:108D6000414138780A38424242410A4300D076E114
:108D70000A20387004200921E14A6EE1BB480068EE
:108D80001038BB4908600BF089F8BA490860BA4846
:108D90000068009001208502B8480369B84CB94AC0
:108DA00020462946FBF7E0FAB74E308081B22046D4
:108DB000FFF76AFCB54FF87A397BAE4A1268009229
:108DC00009020B18B2A220462946FBF7CDFA3080E3
:108DD00081B22046FFF758FCB6480221FFF754FC49
:108DE000A34800680BF05AF8F97A3A7B120251183E
:108DF000884217D1A5480BF08BFB04200924B5A2AB
:108E00002146FFF719FC34E00A2004F08FFF26E129
:108E1000C8480178002900D187E0B5490F220A70BF
:108E2000002184E001200921A3A2FFF705FC7FE0D7
:108E30009148406A00900120810290484368904C1C
:108E4000904A2046FBF790FA8F4D288081B2204649
:108E5000FFF71AFCB64917222046FBF777FD1621CB
:108E600029802046FFF710FC924802242146FFF794
:108E70000BFC9F4804705BE07F48406A0090012033
:108E800081027E4843687E4C7E4A2046FBF76CFA9E
:108E90007D4D288081B22046FFF7F6FBA3491322BF
:108EA0002046FBF753FD122129802046FFF7ECFBFB
:108EB00080480221FFF7E8FB8D48032137E06E4828
:108EC000406A0090012081026C4843686C4C6D4AF6
:108ED0002046FBF749FA6C4D288081B22046FFF707
:108EE000D3FB914917222046FBF730FD162129803C
:108EF0002046FFF7C9FB6F480221FFF7C5FB7C48FE
:108F0000042101703878092800D1A8E009213970BE
:108F10000420DF4AA1E0012009247AA22146FFF7BC
:108F20008BFB73480621017090E071480E2101709F
:108F30000C2000F001F992E0D8480288E84C208823
:108F40007549FFF7EFFA2080D44C20880026268050
:108F500046490A6810180860EF49096888420BD230
:108F6000387807287BD00720387004200921CA4AA6
:108F7000FFF762FB268072E004200924674A21463D
:108F8000FFF75AFB2878002821D05C4801210170A6
:108F90002E705BE056480521B3E7EB4C2088002596
:108FA000258032490A68101808603878072856D09A
:108FB0000720387004200921B74AFFF73DFB2580C0
:108FC0004DE04B480B219CE749480C2199E72F4E77
:108FD000F07A317B09020818C1490988814209D118
:108FE000042009214F4AFFF727FB012028700BF0CE
:108FF00065F82BE03E48072101701F48406A009049
:10900000012085021D4843681D481E4A2946FBF77A
:10901000ABF91D49088081B21948FFF735FBF07A9A
:10902000317BAF4A1288009209020B183C4A14485F
:1090300006462946FBF798F91349088081B2304665
:10904000FFF722FB1B480221FFF71EFB3878092897
:1090500005D03C7004208E4A2146FFF7EDFA01B09E
:10906000F0BDC04621930008BA80010834280020D2
:1090700094190020A4180020187B0108D47E010850
:10908000A4190020FE7E0108564E00203042002028
:109090006865616465722E617070437263203D2063
:1090A0002578202C6261636B437263203D20257814
:1090B0000000000006860108666C61736820766512
:1090C00072696669636174696F6E206661696C7547
:1090D00072650000666C6173682076657269666906
:1090E000636174696F6E20737563636573730000E9
:1090F000422800202C100020432800205820002067
:1091000009810108726561642066696C6520657279
:10911000726F72003028002060200020AA830108AE
:1091200075830108D783010800980108EC970108AE
:10913000D4970108E41F002080B546490A7882428E
:1091400000D185E008700D2800D981E0800001A1E0
:10915000085887468D91000895910008BD91000838
:10916000C5910008CD910008D5910008E99100084B
:10917000F1910008039200080B9200081392000876
:109180001B9200082392000847920008042009213E
:10919000554A5BE00420092147A2FFF74DFA4248F7
:1091A000002101605D4801704C4801704C488D4AB7
:1091B00002804C4801702948017080BD04200921BB
:1091C0003C4A43E004200921394A3FE004200921B8
:1091D000364A3BE004200921324AFFF72DFA324893
:1091E000002101602D480AE0042009212C4A2DE0CD
:1091F00004200921284AFFF71FFA2848002101808E
:1092000080BD04200921234A20E004200921204AAE
:109210001CE0042009211D4A18E0042009211A4AF3
:1092200014E00E480078FFF77FFB0D4802780D48E8
:1092300000680D490CF03EF80A2004F077FD042088
:1092400009210AA202E004200921034AFFF7F4F9E8
:1092500080BDC046412800205A82010842280020D3
:10926000382800203C280020F41F0020666F74611D
:109270005374617465202D20464F54415F53454E11
:10928000445F5245504C590055830108098101083B
:10929000A3820108BA8001087E82010830280020DC
:1092A0005A810108EE820108342800203281010829
:1092B000C9820108E2800108666F746153746174A9
:1092C00065202D20464F54415F4654505F444F5710
:1092D0004E4C4F41445F53544152540043280020A8
:1092E00074000020582000201A83010810B50C4695
:1092F00001460448FBF792FA0120FFF71DFF0248E0
:10930000046010BD442800203C280020024A11605F
:10931000024908707047C0464C2B0020552C002095
:1093200009490A88094B1B78062B03D10F2A09D853
:10933000084B03E013097C2B04D8054B9B181870CD
:10934000501C08807047C04630280020412800206B
:10935000602000203042002010B582B02048214912
:109360000180214801780C224A4320488458C91EB4
:10937000072931D87944097949008F44032D2D2DCF
:109380000C131720426A1A4B184698300090663327
:10939000184C1CA11DE0426D154B188D0090154C0A
:1093A00015A116E0026E124B2A3305E0194900227E
:1093B0000A60C26E0E4BCA330E4C154909E01549BE
:1093C00000220A60826F14A00090094BCA33094C36
:1093D00016A12046FAF7B2FF204602B010BDC046E3
:1093E00058010020FFFF0000492B0020C80000208A
:1093F000542B0020492900202573222573222C2577
:10940000640D000025732573222C222573220D0084
:109410006B890108582C00205546533A666F7461D9
:1094200066696C652E62696E000000002573222556
:1094300073222C222573220D0000000080B54C49B8
:1094400009884C4A11805349884215DC554A90429C
:109450003ADC5149411803294ED8880001A1085827
:109460008746C04675940008199500081D950008A8
:109470002195000854A276E001460D310D2943D80C
:109480003DA2880001A108588746C046C59400083F
:10949000399500083D95000841950008459500085C
:1094A000499500084D95000851950008559500080C
:1094B000599500085D9500086F95000861950008B2
:1094C00067950008644A4EE0374A90420ADC394901
:1094D000884227D03849884226D03849884246D128
:1094E000574A40E0314A904220D0314A90421FD042
:1094F00088423CD1554A36E0314988421AD0314938
:10950000884234D14B4A2EE0244988422AD024494B
:1095100088422CD14F4A26E033A224E03BA222E02D
:10952000424A20E0444A1EE0444A1CE0454A1AE010
:10953000454A18E03E4A16E0484A14E0484A12E01C
:10954000484A10E0484A0EE0484A0CE0484A0AE01F
:10955000484A08E0484A06E0484A04E0484A02E02F
:10956000484A00E03A4A01200821FFF765F880BD2B
:10957000580100205A01002046545020526573754E
:109580006C74203D204654505F535543434553531C
:109590000D0A000056FEFFFF2902000057FEFFFFE4
:1095A0005BFEFFFF09FEFFFF3BFEFFFF3CFEFFFFF0
:1095B0003EFEFFFF0AFEFFFF0BFEFFFF0CFEFFFF5C
:1095C000ECFDFFFFEEFDFFFF465450205265737522
:1095D0006C74203D20494C4C4547414C5F46494CFA
:1095E000454E414D450D0A00465450205265737555
:1095F0006C74203D2046494C455F524551554553BA
:10960000545F53544F505045440D0A004654502067
:10961000526573756C74203D205245515545535425
:109620005F53544F505045440D0A0000098601080D
:109630007487010806880108A7880108DF870108E8
:10964000F28801082B8801082D860108B3870108DC
:109650004E8701087E86010827870108E5860108F4
:10966000C786010805870108168901085686010882
:10967000558801087F880108A78601089587010899
:109680002D890108D5880108F0B581B00446801EF7
:10969000022803D3012C28D00C2C2AD1AA48006A16
:1096A000009001208602A9484368A94DA94A28468E
:1096B0003146FAF759FEA84F388081B22846FEF7A6
:1096C000E3FFDA4803780094A54A28463146FAF7C2
:1096D0004BFE388081B22846FEF7D6FFA14802240F
:1096E0002146FEF7D1FF032000E00220D449087094
:1096F00000E00024204601B0F0BDC046F0B587B0C0
:1097000006463A380024082811D80D464000C046C5
:1097100078448088400087444900120112016100AA
:1097200008000800630090009B000A3591E00C2EB1
:1097300000D904E101200146B140824A114228D0FB
:109740008148006A00900120850280484368804C6F
:10975000804A20462946FAF707FE7F4F388081B2BB
:109760002046FEF791FF7D48037800967C4A20460C
:109770002946FAF7F9FD388081B22046FEF784FFCA
:10978000784802242146FEF77FFF774803210170C5
:10979000D5E0012E00D0D2E070490978012900D02F
:1097A000CDE0714902220A700446C8E02C21284607
:1097B000FAF7E9FF002800D1C1E000240470083561
:1097C0002846FAF7D3FF69490860002800D4B6E0BC
:1097D00000246748005FFFF731FEB0E0093538E04C
:1097E00028460A30FAF7C2FF614E308000043CD0B0
:1097F00060480068002800D599E0FC276A49C851F4
:109800005148006800900124A60250480369504D59
:10981000504A28463146FAF7A7FD4F49088081B2E1
:109820002846FEF731FF6048C35960A228463146FA
:10983000FAF79AFD484908806DE028460A30FAF7A1
:1098400095FF4B4E308000042BD04A48006843E01F
:109850000B352846FAF78AFF45490880010467D18D
:10986000414802210170012469E02C212846FAF7C1
:109870008AFF04462846FAF7F7FF002CB8D02F18C5
:10988000B6D002AD14212846FBF7BFF8E0433A18E2
:10989000611C2846FBF7BCF8FAF768FF35490860F9
:1098A000A8E72C212846FAF76EFF04462846FAF767
:1098B000DBFF002CC9D02F18C7D002AD14212846D9
:1098C000FBF7A3F8E0433A18611C2846FBF7A0F821
:1098D000FAF74CFF27490860002828D42649086079
:1098E0001948006800900124A60218480369184D21
:1098F000184A28463146FAF737FD174F388081B2AB
:109900002846FEF7C1FE1C4803681CA228463146C3
:10991000FAF72AFD388081B22846FEF7B5FE1148D5
:1099200002252946FEF7B0FE0F48057007E030809B
:1099300000B2FFF783FD0C4803210170022420468A
:1099400007B0F0BD0C180000187B0108D47E010898
:10995000A4190020FE7E0108564E0020492B00204D
:10996000348A010806860108482900204C6400203A
:1099700058010020582C0020502B0020446F776E97
:109980006C6F616465642046696C652053697A6513
:109990002066726F6D202B514654504745543A2033
:1099A0003A20256400000000542B002047657420F5
:1099B00046696C652053697A652066726F6D202B4D
:1099C0005146545053495A453A203A2025640000E4
:1099D000B0B50C46054606F08FF8002819D010499E
:1099E000284600F031F8002815D00F480025056002
:1099F0000E4805700E4805600E480F4901800F485B
:109A00000460142004F092F90D48057001200D49FE
:109A100003E00020B0BD0020024901220A70B0BD61
:109A2000542B0020E41F0020502B0020492B002045
:109A3000582C00205A010020FFFF000030100020A9
:109A400048290020542C0020F0B58DB00E46074662
:109A5000FAF70AFF0546012421023046FAF7D5FF3E
:109A6000152030850BA80021818081710B91A00207
:109A70000790072D00D24AE104940BA8072206970D
:109A80003946FAF763FF00240BA8005D014641390F
:109A9000192903D8FAF744FC0BA90855641C062CB5
:109AA000F2D10BA8F8A1FAF778FE002800D1FAE06D
:109AB0000596AF1F0698851D0024002F26462BD043
:109AC0000026A85D2F2805D03A2803D0761CB7427F
:109AD000F7D13E46292E16D3ED4800680090ED4898
